{
  "contractName": "MTZContract",
  "abi": [
    {
      "inputs": [],
      "payable": false,
      "stateMutability": "nonpayable",
      "type": "constructor"
    },
    {
      "anonymous": false,
      "inputs": [
        {
          "indexed": true,
          "internalType": "address",
          "name": "owner",
          "type": "address"
        },
        {
          "indexed": true,
          "internalType": "address",
          "name": "spender",
          "type": "address"
        },
        {
          "indexed": false,
          "internalType": "uint256",
          "name": "value",
          "type": "uint256"
        }
      ],
      "name": "Approval",
      "type": "event"
    },
    {
      "anonymous": false,
      "inputs": [
        {
          "indexed": true,
          "internalType": "address",
          "name": "previousOwner",
          "type": "address"
        },
        {
          "indexed": true,
          "internalType": "address",
          "name": "newOwner",
          "type": "address"
        }
      ],
      "name": "OwnershipTransferred",
      "type": "event"
    },
    {
      "anonymous": false,
      "inputs": [
        {
          "indexed": true,
          "internalType": "address",
          "name": "from",
          "type": "address"
        },
        {
          "indexed": true,
          "internalType": "address",
          "name": "to",
          "type": "address"
        },
        {
          "indexed": false,
          "internalType": "uint256",
          "name": "value",
          "type": "uint256"
        }
      ],
      "name": "Transfer",
      "type": "event"
    },
    {
      "constant": true,
      "inputs": [],
      "name": "_totalDevelopers",
      "outputs": [
        {
          "internalType": "uint256",
          "name": "",
          "type": "uint256"
        }
      ],
      "payable": false,
      "stateMutability": "view",
      "type": "function"
    },
    {
      "constant": true,
      "inputs": [],
      "name": "_totalExceptMembers",
      "outputs": [
        {
          "internalType": "uint256",
          "name": "",
          "type": "uint256"
        }
      ],
      "payable": false,
      "stateMutability": "view",
      "type": "function"
    },
    {
      "constant": true,
      "inputs": [],
      "name": "_totalLiquiditys",
      "outputs": [
        {
          "internalType": "uint256",
          "name": "",
          "type": "uint256"
        }
      ],
      "payable": false,
      "stateMutability": "view",
      "type": "function"
    },
    {
      "constant": true,
      "inputs": [],
      "name": "owner",
      "outputs": [
        {
          "internalType": "address",
          "name": "",
          "type": "address"
        }
      ],
      "payable": false,
      "stateMutability": "view",
      "type": "function"
    },
    {
      "constant": false,
      "inputs": [],
      "name": "renounceOwnership",
      "outputs": [],
      "payable": false,
      "stateMutability": "nonpayable",
      "type": "function"
    },
    {
      "constant": false,
      "inputs": [
        {
          "internalType": "address",
          "name": "newOwner",
          "type": "address"
        }
      ],
      "name": "transferOwnership",
      "outputs": [],
      "payable": false,
      "stateMutability": "nonpayable",
      "type": "function"
    },
    {
      "constant": true,
      "inputs": [],
      "name": "decimals",
      "outputs": [
        {
          "internalType": "uint8",
          "name": "",
          "type": "uint8"
        }
      ],
      "payable": false,
      "stateMutability": "view",
      "type": "function"
    },
    {
      "constant": true,
      "inputs": [],
      "name": "symbol",
      "outputs": [
        {
          "internalType": "string",
          "name": "",
          "type": "string"
        }
      ],
      "payable": false,
      "stateMutability": "view",
      "type": "function"
    },
    {
      "constant": true,
      "inputs": [],
      "name": "name",
      "outputs": [
        {
          "internalType": "string",
          "name": "",
          "type": "string"
        }
      ],
      "payable": false,
      "stateMutability": "view",
      "type": "function"
    },
    {
      "constant": true,
      "inputs": [],
      "name": "totalSupply",
      "outputs": [
        {
          "internalType": "uint256",
          "name": "",
          "type": "uint256"
        }
      ],
      "payable": false,
      "stateMutability": "view",
      "type": "function"
    },
    {
      "constant": true,
      "inputs": [],
      "name": "burnStopped",
      "outputs": [
        {
          "internalType": "bool",
          "name": "",
          "type": "bool"
        }
      ],
      "payable": false,
      "stateMutability": "view",
      "type": "function"
    },
    {
      "constant": false,
      "inputs": [
        {
          "internalType": "bool",
          "name": "isStopped",
          "type": "bool"
        }
      ],
      "name": "setBurnStopped",
      "outputs": [],
      "payable": false,
      "stateMutability": "nonpayable",
      "type": "function"
    },
    {
      "constant": true,
      "inputs": [],
      "name": "getFeeInfo",
      "outputs": [
        {
          "internalType": "uint16",
          "name": "holdersFee",
          "type": "uint16"
        },
        {
          "internalType": "uint16",
          "name": "liquidityFee",
          "type": "uint16"
        },
        {
          "internalType": "uint16",
          "name": "presidentFee",
          "type": "uint16"
        },
        {
          "internalType": "uint16",
          "name": "developersFee",
          "type": "uint16"
        },
        {
          "internalType": "uint16",
          "name": "burnFee",
          "type": "uint16"
        },
        {
          "internalType": "uint16",
          "name": "appFee",
          "type": "uint16"
        }
      ],
      "payable": false,
      "stateMutability": "view",
      "type": "function"
    },
    {
      "constant": false,
      "inputs": [
        {
          "internalType": "uint16",
          "name": "fee",
          "type": "uint16"
        }
      ],
      "name": "setHoldersFee",
      "outputs": [],
      "payable": false,
      "stateMutability": "nonpayable",
      "type": "function"
    },
    {
      "constant": false,
      "inputs": [
        {
          "internalType": "uint16",
          "name": "fee",
          "type": "uint16"
        }
      ],
      "name": "setLiquidityFee",
      "outputs": [],
      "payable": false,
      "stateMutability": "nonpayable",
      "type": "function"
    },
    {
      "constant": false,
      "inputs": [
        {
          "internalType": "uint16",
          "name": "fee",
          "type": "uint16"
        }
      ],
      "name": "setDevelopersFee",
      "outputs": [],
      "payable": false,
      "stateMutability": "nonpayable",
      "type": "function"
    },
    {
      "constant": false,
      "inputs": [
        {
          "internalType": "uint16",
          "name": "fee",
          "type": "uint16"
        }
      ],
      "name": "setPresidentFee",
      "outputs": [],
      "payable": false,
      "stateMutability": "nonpayable",
      "type": "function"
    },
    {
      "constant": false,
      "inputs": [
        {
          "internalType": "uint16",
          "name": "fee",
          "type": "uint16"
        }
      ],
      "name": "setBurnFee",
      "outputs": [],
      "payable": false,
      "stateMutability": "nonpayable",
      "type": "function"
    },
    {
      "constant": false,
      "inputs": [
        {
          "internalType": "uint16",
          "name": "fee",
          "type": "uint16"
        }
      ],
      "name": "setAppFee",
      "outputs": [],
      "payable": false,
      "stateMutability": "nonpayable",
      "type": "function"
    },
    {
      "constant": true,
      "inputs": [],
      "name": "getSupplyInfo",
      "outputs": [
        {
          "internalType": "uint256",
          "name": "holdersSupply",
          "type": "uint256"
        },
        {
          "internalType": "uint256",
          "name": "developersSupply",
          "type": "uint256"
        },
        {
          "internalType": "uint256",
          "name": "presidentSupply",
          "type": "uint256"
        },
        {
          "internalType": "uint256",
          "name": "liquiditySupply",
          "type": "uint256"
        },
        {
          "internalType": "uint256",
          "name": "appSupply",
          "type": "uint256"
        }
      ],
      "payable": false,
      "stateMutability": "view",
      "type": "function"
    },
    {
      "constant": false,
      "inputs": [],
      "name": "makeReflect",
      "outputs": [],
      "payable": false,
      "stateMutability": "nonpayable",
      "type": "function"
    },
    {
      "constant": true,
      "inputs": [],
      "name": "getWalletNumbers",
      "outputs": [
        {
          "internalType": "uint256",
          "name": "totalHolders",
          "type": "uint256"
        },
        {
          "internalType": "uint256",
          "name": "totalExceptMembers",
          "type": "uint256"
        },
        {
          "internalType": "uint256",
          "name": "totalDevelopers",
          "type": "uint256"
        },
        {
          "internalType": "uint256",
          "name": "totalLiquiditys",
          "type": "uint256"
        }
      ],
      "payable": false,
      "stateMutability": "view",
      "type": "function"
    },
    {
      "constant": false,
      "inputs": [
        {
          "internalType": "address",
          "name": "exceptFeeMember",
          "type": "address"
        }
      ],
      "name": "addExceptFeeMember",
      "outputs": [],
      "payable": false,
      "stateMutability": "nonpayable",
      "type": "function"
    },
    {
      "constant": false,
      "inputs": [
        {
          "internalType": "address",
          "name": "exceptFeeMember",
          "type": "address"
        }
      ],
      "name": "removeExceptFeeMember",
      "outputs": [],
      "payable": false,
      "stateMutability": "nonpayable",
      "type": "function"
    },
    {
      "constant": true,
      "inputs": [
        {
          "internalType": "uint256",
          "name": "_idx",
          "type": "uint256"
        }
      ],
      "name": "getExceptFeeMembers",
      "outputs": [
        {
          "internalType": "address",
          "name": "",
          "type": "address"
        }
      ],
      "payable": false,
      "stateMutability": "view",
      "type": "function"
    },
    {
      "constant": false,
      "inputs": [
        {
          "internalType": "address",
          "name": "developer",
          "type": "address"
        }
      ],
      "name": "addDeveloper",
      "outputs": [],
      "payable": false,
      "stateMutability": "nonpayable",
      "type": "function"
    },
    {
      "constant": false,
      "inputs": [
        {
          "internalType": "address",
          "name": "developer",
          "type": "address"
        }
      ],
      "name": "removeDeveloper",
      "outputs": [],
      "payable": false,
      "stateMutability": "nonpayable",
      "type": "function"
    },
    {
      "constant": true,
      "inputs": [
        {
          "internalType": "uint256",
          "name": "_idx",
          "type": "uint256"
        }
      ],
      "name": "getDeveloper",
      "outputs": [
        {
          "internalType": "address",
          "name": "",
          "type": "address"
        }
      ],
      "payable": false,
      "stateMutability": "view",
      "type": "function"
    },
    {
      "constant": false,
      "inputs": [
        {
          "internalType": "address",
          "name": "liquidity",
          "type": "address"
        }
      ],
      "name": "addLiquidity",
      "outputs": [],
      "payable": false,
      "stateMutability": "nonpayable",
      "type": "function"
    },
    {
      "constant": false,
      "inputs": [
        {
          "internalType": "address",
          "name": "liquidity",
          "type": "address"
        }
      ],
      "name": "removeLiquidity",
      "outputs": [],
      "payable": false,
      "stateMutability": "nonpayable",
      "type": "function"
    },
    {
      "constant": true,
      "inputs": [
        {
          "internalType": "uint256",
          "name": "_idx",
          "type": "uint256"
        }
      ],
      "name": "getLiquidity",
      "outputs": [
        {
          "internalType": "address",
          "name": "",
          "type": "address"
        }
      ],
      "payable": false,
      "stateMutability": "view",
      "type": "function"
    },
    {
      "constant": false,
      "inputs": [
        {
          "internalType": "address",
          "name": "president",
          "type": "address"
        }
      ],
      "name": "setPresident",
      "outputs": [],
      "payable": false,
      "stateMutability": "nonpayable",
      "type": "function"
    },
    {
      "constant": true,
      "inputs": [],
      "name": "getPresident",
      "outputs": [
        {
          "internalType": "address",
          "name": "",
          "type": "address"
        }
      ],
      "payable": false,
      "stateMutability": "view",
      "type": "function"
    },
    {
      "constant": true,
      "inputs": [
        {
          "internalType": "address",
          "name": "account",
          "type": "address"
        }
      ],
      "name": "balanceOf",
      "outputs": [
        {
          "internalType": "uint256",
          "name": "",
          "type": "uint256"
        }
      ],
      "payable": false,
      "stateMutability": "view",
      "type": "function"
    },
    {
      "constant": false,
      "inputs": [
        {
          "internalType": "address",
          "name": "recipient",
          "type": "address"
        },
        {
          "internalType": "uint256",
          "name": "amount",
          "type": "uint256"
        }
      ],
      "name": "transfer",
      "outputs": [
        {
          "internalType": "bool",
          "name": "",
          "type": "bool"
        }
      ],
      "payable": false,
      "stateMutability": "nonpayable",
      "type": "function"
    },
    {
      "constant": true,
      "inputs": [
        {
          "internalType": "address",
          "name": "owner",
          "type": "address"
        },
        {
          "internalType": "address",
          "name": "spender",
          "type": "address"
        }
      ],
      "name": "allowance",
      "outputs": [
        {
          "internalType": "uint256",
          "name": "",
          "type": "uint256"
        }
      ],
      "payable": false,
      "stateMutability": "view",
      "type": "function"
    },
    {
      "constant": false,
      "inputs": [
        {
          "internalType": "address",
          "name": "spender",
          "type": "address"
        },
        {
          "internalType": "uint256",
          "name": "amount",
          "type": "uint256"
        }
      ],
      "name": "approve",
      "outputs": [
        {
          "internalType": "bool",
          "name": "",
          "type": "bool"
        }
      ],
      "payable": false,
      "stateMutability": "nonpayable",
      "type": "function"
    },
    {
      "constant": false,
      "inputs": [
        {
          "internalType": "address",
          "name": "sender",
          "type": "address"
        },
        {
          "internalType": "address",
          "name": "recipient",
          "type": "address"
        },
        {
          "internalType": "uint256",
          "name": "amount",
          "type": "uint256"
        }
      ],
      "name": "transferFrom",
      "outputs": [
        {
          "internalType": "bool",
          "name": "",
          "type": "bool"
        }
      ],
      "payable": false,
      "stateMutability": "nonpayable",
      "type": "function"
    },
    {
      "constant": false,
      "inputs": [
        {
          "internalType": "address",
          "name": "spender",
          "type": "address"
        },
        {
          "internalType": "uint256",
          "name": "addedValue",
          "type": "uint256"
        }
      ],
      "name": "increaseAllowance",
      "outputs": [
        {
          "internalType": "bool",
          "name": "",
          "type": "bool"
        }
      ],
      "payable": false,
      "stateMutability": "nonpayable",
      "type": "function"
    },
    {
      "constant": false,
      "inputs": [
        {
          "internalType": "address",
          "name": "spender",
          "type": "address"
        },
        {
          "internalType": "uint256",
          "name": "subtractedValue",
          "type": "uint256"
        }
      ],
      "name": "decreaseAllowance",
      "outputs": [
        {
          "internalType": "bool",
          "name": "",
          "type": "bool"
        }
      ],
      "payable": false,
      "stateMutability": "nonpayable",
      "type": "function"
    }
  ],
  "bytecode": "0x60806040523480156200001157600080fd5b506000620000276001600160e01b036200023d16565b600080546001600160a01b0319166001600160a01b0383169081178255604051929350917f8be0079c531659141344cd1fd0a4f28419497f9722a3daafe3b4186f6b6457e0908290a35060408051808201909152600f8082526e2a22a9aa1026a7a722aa1021a7a4a760891b6020909201918252620000a99160069162000242565b50604080518082019091526007808252662a22a9aa26aa2d60c91b6020909201918252620000da9160059162000242565b5060048054601260ff19918216179182905560ff909116600a90810a6403f5476a00026003818155600780548516905560138054606461ffff199091161763ffff00001916626400001761ffff60501b19166a28000000000000000000001761ffff60201b1916643c000000001761ffff60301b191666190000000000001761ffff60401b1916687d0000000000000000179055600060148190556015819055601681905560178190556018819055338082526001602081815260408085209690965560088290557fec8156718a8372b1db44bb411437d0870f3e3790d4a08526d024ce1b0b668f6b80546001600160a01b031990811685179091559681528584208054909816909117909655600b829055600e829055601182905560108054909516909455905482519081529151929390927fddf252ad1be2c89b69c2b068fc378daa952ba7f163c4a11628f55a4df523b3ef9281900390910190a3620002e4565b335b90565b828054600181600116156101000203166002900490600052602060002090601f016020900481019282601f106200028557805160ff1916838001178555620002b5565b82800160010185558215620002b5579182015b82811115620002b557825182559160200191906001019062000298565b50620002c3929150620002c7565b5090565b6200023f91905b80821115620002c35760008155600101620002ce565b612a9f80620002f46000396000f3fe608060405234801561001057600080fd5b50600436106102465760003560e01c806370a082311161013b578063a9059cbb116100b8578063dd62ed3e1161007c578063dd62ed3e1461070b578063e3412e3d14610739578063e558894c1461075f578063edf7008e14610780578063f2fde38b146107a157610246565b8063a9059cbb1461064c578063b1b2809e14610678578063b6e06c951461069e578063b9424b43146106bf578063d798f86e146106e557610246565b8063951583c3116100ff578063951583c3146105cd578063957dc9c9146105ea57806395d89b41146105f25780639e23c209146105fa578063a457c2d71461062057610246565b806370a0823114610572578063715018a6146105985780637a276bb6146105a057806389fb4929146105bd5780638da5cb5b146105c557610246565b806322fbf1e8116101c9578063395093511161018d57806339509351146104da57806345d610d31461050657806349de5f871461052c57806355f378421461054d578063609246cc1461055557610246565b806322fbf1e81461042a57806323b872dd1461045057806324f69faf14610486578063313ce567146104b4578063360d4cc4146104d257610246565b806309f4bca51161021057806309f4bca51461039557806318160ddd146103b4578063196f1fb9146103ce5780631a29d537146103d657806320edeaf3146103f757610246565b806202eab71461024b578062738d221461029157806306a7e9c8146102b557806306fdde03146102d8578063095ea7b314610355575b600080fd5b6102536107c7565b6040805161ffff978816815295871660208701529386168585015291851660608501528416608084015290921660a082015290519081900360c00190f35b610299610806565b604080516001600160a01b039092168252519081900360200190f35b6102d6600480360360208110156102cb57600080fd5b503561ffff16610815565b005b6102e0610885565b6040805160208082528351818301528351919283929083019185019080838360005b8381101561031a578181015183820152602001610302565b50505050905090810190601f1680156103475780820380516001836020036101000a031916815260200191505b509250505060405180910390f35b6103816004803603604081101561036b57600080fd5b506001600160a01b03813516906020013561091b565b604080519115158252519081900360200190f35b6102d6600480360360208110156103ab57600080fd5b50351515610939565b6103bc6109a4565b60408051918252519081900360200190f35b6103816109aa565b6102d6600480360360208110156103ec57600080fd5b503561ffff166109b3565b6103ff610a2b565b6040805195865260208601949094528484019290925260608401526080830152519081900360a00190f35b6102d66004803603602081101561044057600080fd5b50356001600160a01b0316610a41565b6103816004803603606081101561046657600080fd5b506001600160a01b03813581169160208101359091169060400135610bae565b61048e610c3b565b604080519485526020850193909352838301919091526060830152519081900360800190f35b6104bc610c4d565b6040805160ff9092168252519081900360200190f35b6102d6610c56565b610381600480360360408110156104f057600080fd5b506001600160a01b03813516906020013561111d565b6102d66004803603602081101561051c57600080fd5b50356001600160a01b0316611171565b6102d66004803603602081101561054257600080fd5b503561ffff1661133b565b6103bc6113b8565b6102996004803603602081101561056b57600080fd5b50356113be565b6103bc6004803603602081101561058857600080fd5b50356001600160a01b03166113d9565b6102d66113f4565b610299600480360360208110156105b657600080fd5b5035611496565b6103bc6114b1565b6102996114b7565b610299600480360360208110156105e357600080fd5b50356114c6565b6103bc6114e1565b6102e06114e7565b6102d66004803603602081101561061057600080fd5b50356001600160a01b0316611548565b6103816004803603604081101561063657600080fd5b506001600160a01b0381351690602001356116e7565b6103816004803603604081101561066257600080fd5b506001600160a01b038135169060200135611755565b6102d66004803603602081101561068e57600080fd5b50356001600160a01b0316611769565b6102d6600480360360208110156106b457600080fd5b503561ffff16611878565b6102d6600480360360208110156106d557600080fd5b50356001600160a01b03166118f7565b6102d6600480360360208110156106fb57600080fd5b50356001600160a01b03166119b6565b6103bc6004803603604081101561072157600080fd5b506001600160a01b0381358116916020013516611b5c565b6102d66004803603602081101561074f57600080fd5b50356001600160a01b0316611b87565b6102d66004803603602081101561077557600080fd5b503561ffff16611ced565b6102d66004803603602081101561079657600080fd5b503561ffff16611d69565b6102d6600480360360208110156107b757600080fd5b50356001600160a01b0316611de3565b60135461ffff80821692620100008304821692600160501b81048316926401000000008204811692600160301b8304821692600160401b900490911690565b6010546001600160a01b031690565b61081d611e47565b6000546001600160a01b0390811691161461086d576040805162461bcd60e51b8152602060048201819052602482015260008051602061294f833981519152604482015290519081900360640190fd5b6013805461ffff191661ffff92909216919091179055565b60068054604080516020601f60026000196101006001881615020190951694909404938401819004810282018101909252828152606093909290918301828280156109115780601f106108e657610100808354040283529160200191610911565b820191906000526020600020905b8154815290600101906020018083116108f457829003601f168201915b5050505050905090565b600061092f610928611e47565b8484611e4b565b5060015b92915050565b610941611e47565b6000546001600160a01b03908116911614610991576040805162461bcd60e51b8152602060048201819052602482015260008051602061294f833981519152604482015290519081900360640190fd5b6007805460ff1916911515919091179055565b60035490565b60075460ff1690565b6109bb611e47565b6000546001600160a01b03908116911614610a0b576040805162461bcd60e51b8152602060048201819052602482015260008051602061294f833981519152604482015290519081900360640190fd5b6013805461ffff909216620100000263ffff000019909216919091179055565b6014546015546016546017546018549091929394565b610a49611e47565b6000546001600160a01b03908116911614610a99576040805162461bcd60e51b8152602060048201819052602482015260008051602061294f833981519152604482015290519081900360640190fd5b6001600160a01b038116610ade5760405162461bcd60e51b815260040180806020018281038252602581526020018061280e6025913960400191505060405180910390fd5b60005b600e54811015610b1a576000818152600f60205260409020546001600160a01b0383811691161415610b1257610b1a565b600101610ae1565b600e548114610b70576040805162461bcd60e51b815260206004820152601f60248201527f4d4f4e45543a20446576656c6f70657220616c72656164792065786973747300604482015290519081900360640190fd5b600e80546000908152600f6020526040902080546001600160a01b0319166001600160a01b03851617905554610ba7906001611f37565b600e555050565b6000610bbb848484611f98565b610c3184610bc7611e47565b610c2c85604051806060016040528060288152602001612906602891396001600160a01b038a16600090815260026020526040812090610c05611e47565b6001600160a01b03168152602081019190915260400160002054919063ffffffff61248516565b611e4b565b5060019392505050565b600854600b54600e5460115490919293565b60045460ff1690565b610c5e611e47565b6000546001600160a01b03908116911614610cae576040805162461bcd60e51b8152602060048201819052602482015260008051602061294f833981519152604482015290519081900360640190fd5b60185430600090815260016020526040902054610cd09163ffffffff611f3716565b30600081815260016020526040902091909155610ceb6114b7565b6001600160a01b03166000805160206129928339815191526018546040518082815260200191505060405180910390a360006018556010546001600160a01b031615610dc0576016546010546001600160a01b0316600090815260016020526040902054610d5e9163ffffffff611f3716565b601080546001600160a01b039081166000908152600160205260408120939093556016929092555416610d8f6114b7565b6001600160a01b03166000805160206129928339815191526016546040518082815260200191505060405180910390a35b600e5415610ed5576000610de1600e5460155461251c90919063ffffffff16565b90506000805b600e54811015610ecc576001600e5403811415610e1457601554610e11908363ffffffff61255e16565b92505b6000818152600f60209081526040808320546001600160a01b031683526001909152902054610e49908463ffffffff611f3716565b6000828152600f6020818152604080842080546001600160a01b03908116865260018452918520959095559285905252905416610e846114b7565b6001600160a01b0316600080516020612992833981519152856040518082815260200191505060405180910390a3610ec2828463ffffffff611f3716565b9150600101610de7565b50506000601555505b60115415610fea576000610ef660115460175461251c90919063ffffffff16565b90506000805b601154811015610fe157600160115403811415610f2957601754610f26908363ffffffff61255e16565b92505b6000818152601260209081526040808320546001600160a01b031683526001909152902054610f5e908463ffffffff611f3716565b600082815260126020818152604080842080546001600160a01b03908116865260018452918520959095559285905252905416610f996114b7565b6001600160a01b0316600080516020612992833981519152856040518082815260200191505060405180910390a3610fd7828463ffffffff611f3716565b9150600101610efc565b50506000601755505b6000805b600854811015611103576003546000828152600960209081526040808320546001600160a01b031683526001909152812054601454919261104792909161103b919063ffffffff6125a016565b9063ffffffff61251c16565b9050611059838263ffffffff611f3716565b6000838152600960209081526040808320546001600160a01b031683526001909152902054909350611091908263ffffffff611f3716565b600083815260096020818152604080842080546001600160a01b039081168652600184529185209590955592869052529054166110cc6114b7565b6001600160a01b0316600080516020612992833981519152836040518082815260200191505060405180910390a350600101610fee565b50601454611117908263ffffffff61255e16565b60145550565b600061092f61112a611e47565b84610c2c856002600061113b611e47565b6001600160a01b03908116825260208083019390935260409182016000908120918c16815292529020549063ffffffff611f3716565b611179611e47565b6000546001600160a01b039081169116146111c9576040805162461bcd60e51b8152602060048201819052602482015260008051602061294f833981519152604482015290519081900360640190fd5b6000600b541161120a5760405162461bcd60e51b81526004018080602001828103825260258152602001806129b26025913960400191505060405180910390fd5b6001600160a01b0381166000908152600d602052604090205460ff16151560011461127c576040805162461bcd60e51b815260206004820152601e60248201527f4d4f4e45543a204d656d6265722069736e2774206f7574206f66206665650000604482015290519081900360640190fd5b6001600160a01b0381166000908152600d60205260408120805460ff191690555b600b548110156112d6576000818152600c60205260409020546001600160a01b03838116911614156112ce576112d6565b60010161129d565b5b6001600b540381101561132057600181016000818152600c602052604080822054938252902080546001600160a01b0319166001600160a01b03909316929092179091556112d7565b600b5461133490600163ffffffff61255e16565b600b555050565b611343611e47565b6000546001600160a01b03908116911614611393576040805162461bcd60e51b8152602060048201819052602482015260008051602061294f833981519152604482015290519081900360640190fd5b6013805461ffff909216600160301b0267ffff00000000000019909216919091179055565b60115481565b6000908152600c60205260409020546001600160a01b031690565b6001600160a01b031660009081526001602052604090205490565b6113fc611e47565b6000546001600160a01b0390811691161461144c576040805162461bcd60e51b8152602060048201819052602482015260008051602061294f833981519152604482015290519081900360640190fd5b600080546040516001600160a01b03909116907f8be0079c531659141344cd1fd0a4f28419497f9722a3daafe3b4186f6b6457e0908390a3600080546001600160a01b0319169055565b6000908152600f60205260409020546001600160a01b031690565b600b5481565b6000546001600160a01b031690565b6000908152601260205260409020546001600160a01b031690565b600e5481565b60058054604080516020601f60026000196101006001881615020190951694909404938401819004810282018101909252828152606093909290918301828280156109115780601f106108e657610100808354040283529160200191610911565b611550611e47565b6000546001600160a01b039081169116146115a0576040805162461bcd60e51b8152602060048201819052602482015260008051602061294f833981519152604482015290519081900360640190fd5b6000600e54116115f7576040805162461bcd60e51b815260206004820152601d60248201527f4d4f4e45543a205468657265206973206e6f20646576656c6f70657273000000604482015290519081900360640190fd5b60005b600e54811015611633576000818152600f60205260409020546001600160a01b038381169116141561162b57611633565b6001016115fa565b600e548110611689576040805162461bcd60e51b815260206004820152601e60248201527f4d4f4e45543a20446576656c6f70657220646f65736e27742065786973740000604482015290519081900360640190fd5b5b6001600e54038110156116d357600181016000818152600f602052604080822054938252902080546001600160a01b0319166001600160a01b039093169290921790915561168a565b600e54610ba790600163ffffffff61255e16565b600061092f6116f4611e47565b84610c2c856040518060600160405280602581526020016127e9602591396002600061171e611e47565b6001600160a01b03908116825260208083019390935260409182016000908120918d1681529252902054919063ffffffff61248516565b600061092f611762611e47565b8484611f98565b611771611e47565b6000546001600160a01b039081169116146117c1576040805162461bcd60e51b8152602060048201819052602482015260008051602061294f833981519152604482015290519081900360640190fd5b6001600160a01b0381166000908152600d602052604090205460ff16156118195760405162461bcd60e51b81526004018080602001828103825260238152602001806128c26023913960400191505060405180910390fd5b6001600160a01b0381166000818152600d60209081526040808320805460ff19166001908117909155600b80548552600c909352922080546001600160a01b03191690931790925590546118729163ffffffff611f3716565b600b5550565b611880611e47565b6000546001600160a01b039081169116146118d0576040805162461bcd60e51b8152602060048201819052602482015260008051602061294f833981519152604482015290519081900360640190fd5b6013805461ffff909216600160401b0269ffff000000000000000019909216919091179055565b6118ff611e47565b6000546001600160a01b0390811691161461194f576040805162461bcd60e51b8152602060048201819052602482015260008051602061294f833981519152604482015290519081900360640190fd5b6001600160a01b0381166119945760405162461bcd60e51b81526004018080602001828103825260258152602001806129d76025913960400191505060405180910390fd5b601080546001600160a01b0319166001600160a01b0392909216919091179055565b6119be611e47565b6000546001600160a01b03908116911614611a0e576040805162461bcd60e51b8152602060048201819052602482015260008051602061294f833981519152604482015290519081900360640190fd5b600060115411611a65576040805162461bcd60e51b815260206004820152601d60248201527f4d4f4e45543a205468657265206973206e6f206c697175696469747973000000604482015290519081900360640190fd5b60005b601154811015611aa1576000818152601260205260409020546001600160a01b0383811691161415611a9957611aa1565b600101611a68565b6011548110611af7576040805162461bcd60e51b815260206004820152601e60248201527f4d4f4e45543a204c697175696469747920646f65736e27742065786973740000604482015290519081900360640190fd5b5b600160115403811015611b41576001810160008181526012602052604080822054938252902080546001600160a01b0319166001600160a01b0390931692909217909155611af8565b601154611b5590600163ffffffff61255e16565b6011555050565b6001600160a01b03918216600090815260026020908152604080832093909416825291909152205490565b611b8f611e47565b6000546001600160a01b03908116911614611bdf576040805162461bcd60e51b8152602060048201819052602482015260008051602061294f833981519152604482015290519081900360640190fd5b6001600160a01b038116611c245760405162461bcd60e51b8152600401808060200182810382526025815260200180612a466025913960400191505060405180910390fd5b60005b601154811015611c60576000818152601260205260409020546001600160a01b0383811691161415611c5857611c60565b600101611c27565b6011548114611cb6576040805162461bcd60e51b815260206004820152601f60248201527f4d4f4e45543a204c697175696469747920616c72656164792065786973747300604482015290519081900360640190fd5b60118054600090815260126020526040902080546001600160a01b0319166001600160a01b03851617905554611b55906001611f37565b611cf5611e47565b6000546001600160a01b03908116911614611d45576040805162461bcd60e51b8152602060048201819052602482015260008051602061294f833981519152604482015290519081900360640190fd5b6013805461ffff9092166401000000000265ffff0000000019909216919091179055565b611d71611e47565b6000546001600160a01b03908116911614611dc1576040805162461bcd60e51b8152602060048201819052602482015260008051602061294f833981519152604482015290519081900360640190fd5b6013805461ffff909216600160501b0261ffff60501b19909216919091179055565b611deb611e47565b6000546001600160a01b03908116911614611e3b576040805162461bcd60e51b8152602060048201819052602482015260008051602061294f833981519152604482015290519081900360640190fd5b611e44816125f9565b50565b3390565b6001600160a01b038316611e905760405162461bcd60e51b8152600401808060200182810382526024815260200180612a226024913960400191505060405180910390fd5b6001600160a01b038216611ed55760405162461bcd60e51b81526004018080602001828103825260228152602001806128a06022913960400191505060405180910390fd5b6001600160a01b03808416600081815260026020908152604080832094871680845294825291829020859055815185815291517f8c5be1e5ebec7d5bd14f71427d1e84f3dd0314c0f7b2291e5b200ac8c7c3b9259281900390910190a3505050565b600082820183811015611f91576040805162461bcd60e51b815260206004820152601b60248201527f536166654d6174683a206164646974696f6e206f766572666c6f770000000000604482015290519081900360640190fd5b9392505050565b6001600160a01b038316611fdd5760405162461bcd60e51b81526004018080602001828103825260258152602001806128596025913960400191505060405180910390fd5b6001600160a01b0382166120225760405162461bcd60e51b815260040180806020018281038252602381526020018061296f6023913960400191505060405180910390fd5b6001600160a01b0383166000908152600160205260409020548111156120795760405162461bcd60e51b81526004018080602001828103825260268152602001806129fc6026913960400191505060405180910390fd5b6001600160a01b0383166000908152600d60205260409020548190819060ff161580156120bf57506001600160a01b0384166000908152600d602052604090205460ff16155b156122b45760075460ff16612124576013546000906120f2906127109061103b908790600160301b900461ffff166125a0565b9050612104838263ffffffff61255e16565b9250612116828263ffffffff61255e16565b91506121228682612699565b505b601354600090612147906127109061103b90879061ffff1663ffffffff6125a016565b9050612159838263ffffffff61255e16565b60145490935061216f908263ffffffff611f3716565b60145550601354600090612197906127109061103b908790600160501b900461ffff166125a0565b90506121a9838263ffffffff61255e16565b6016549093506121bf908263ffffffff611f3716565b601655506013546000906121e8906127109061103b908790640100000000900461ffff166125a0565b90506121fa838263ffffffff61255e16565b601554909350612210908263ffffffff611f3716565b60155550601354600090612238906127109061103b908790600160401b900461ffff166125a0565b905061224a838263ffffffff61255e16565b601854909350612260908263ffffffff611f3716565b60185550601354600090612287906127109061103b90879062010000900461ffff166125a0565b9050612299838263ffffffff61255e16565b6017549093506122af908263ffffffff611f3716565b601755505b6001600160a01b0385166000908152600a602052604090205460ff1661232b5760088054600090815260096020908152604080832080546001600160a01b0319166001600160a01b038b169081179091558352600a9091529020805460ff19166001908117909155905461232791611f37565b6008555b6001600160a01b0384166000908152600a602052604090205460ff166123a25760088054600090815260096020908152604080832080546001600160a01b0319166001600160a01b038a169081179091558352600a9091529020805460ff19166001908117909155905461239e91611f37565b6008555b6001600160a01b0384166000908152600160205260409020546123cb908363ffffffff611f3716565b60016000866001600160a01b03166001600160a01b0316815260200190815260200160002081905550612437816040518060600160405280602681526020016129fc602691396001600160a01b038816600090815260016020526040902054919063ffffffff61248516565b6001600160a01b038087166000818152600160209081526040918290209490945580518681529051928816939192600080516020612992833981519152929181900390910190a35050505050565b600081848411156125145760405162461bcd60e51b81526004018080602001828103825283818151815260200191508051906020019080838360005b838110156124d95781810151838201526020016124c1565b50505050905090810190601f1680156125065780820380516001836020036101000a031916815260200191505b509250505060405180910390fd5b505050900390565b6000611f9183836040518060400160405280601a81526020017f536166654d6174683a206469766973696f6e206279207a65726f000000000000815250612783565b6000611f9183836040518060400160405280601e81526020017f536166654d6174683a207375627472616374696f6e206f766572666c6f770000815250612485565b6000826125af57506000610933565b828202828482816125bc57fe5b0414611f915760405162461bcd60e51b815260040180806020018281038252602181526020018061292e6021913960400191505060405180910390fd5b6001600160a01b03811661263e5760405162461bcd60e51b81526004018080602001828103825260268152602001806128336026913960400191505060405180910390fd5b600080546040516001600160a01b03808516939216917f8be0079c531659141344cd1fd0a4f28419497f9722a3daafe3b4186f6b6457e091a3600080546001600160a01b0319166001600160a01b0392909216919091179055565b6001600160a01b0382166126de5760405162461bcd60e51b81526004018080602001828103825260218152602001806128e56021913960400191505060405180910390fd5b6127218160405180606001604052806022815260200161287e602291396001600160a01b038516600090815260016020526040902054919063ffffffff61248516565b6001600160a01b03831660009081526001602052604090205560035461274d908263ffffffff61255e16565b6003556040805182815290516000916001600160a01b038516916000805160206129928339815191529181900360200190a35050565b600081836127d25760405162461bcd60e51b81526020600482018181528351602484015283519092839260449091019190850190808383600083156124d95781810151838201526020016124c1565b5060008385816127de57fe5b049594505050505056fe4d4f4e45543a2064656372656173656420616c6c6f77616e63652062656c6f77207a65726f4d4f4e45543a20446576656c6f7065722063616e2774206265207a65726f206164647265734f776e61626c653a206e6577206f776e657220697320746865207a65726f20616464726573734d4f4e45543a207472616e736665722066726f6d20746865207a65726f20616464726573734d4f4e45543a206275726e20616d6f756e7420657863656564732062616c616e63654d4f4e45543a20617070726f766520746f20746865207a65726f20616464726573734d4f4e45543a204d656d62657220697320616c7265616479206f7574206f66206665654d4f4e45543a206275726e2066726f6d20746865207a65726f20616464726573734d4f4e45543a207472616e7366657220616d6f756e74206578636565647320616c6c6f77616e6365536166654d6174683a206d756c7469706c69636174696f6e206f766572666c6f774f776e61626c653a2063616c6c6572206973206e6f7420746865206f776e65724d4f4e45543a207472616e7366657220746f20746865207a65726f2061646472657373ddf252ad1be2c89b69c2b068fc378daa952ba7f163c4a11628f55a4df523b3ef4d4f4e45543a205468657265206973206e6f2065786365707420666565206d656d626572734d4f4e45543a20507265736964656e742063616e2774206265207a65726f206164647265734d4f4e45543a207472616e7366657220616d6f756e7420657863656564732062616c616e63654d4f4e45543a20617070726f76652066726f6d20746865207a65726f20616464726573734d4f4e45543a204c69717569646974792063616e2774206265207a65726f20616464726573a265627a7a72315820c27d722c550e9604344afffe18e6d1076bc1e2638ec3582d8b1064a74cc6118e64736f6c63430005100032",
  "source": "/**\r\n *Submitted for verification at BscScan.com on 2021-12-23\r\n*/\r\n\r\n/**\r\n *Submitted for verification at BscScan.com on 2021-05-15\r\n*/\r\n\r\npragma solidity 0.5.16;\r\n\r\ninterface IBEP20 {\r\n  /**\r\n   * @dev Returns the amount of tokens in existence.\r\n   */\r\n  function totalSupply() external view returns (uint256);\r\n\r\n  /**\r\n   * @dev Returns the token decimals.\r\n   */\r\n  function decimals() external view returns (uint8);\r\n\r\n  /**\r\n   * @dev Returns the token symbol.\r\n   */\r\n  function symbol() external view returns (string memory);\r\n\r\n  /**\r\n  * @dev Returns the token name.\r\n  */\r\n  function name() external view returns (string memory);\r\n\r\n  /**\r\n   * @dev Returns the amount of tokens owned by `account`.\r\n   */\r\n  function balanceOf(address account) external view returns (uint256);\r\n\r\n  /**\r\n   * @dev Moves `amount` tokens from the caller's account to `recipient`.\r\n   *\r\n   * Returns a boolean value indicating whether the operation succeeded.\r\n   *\r\n   * Emits a {Transfer} event.\r\n   */\r\n  function transfer(address recipient, uint256 amount) external returns (bool);\r\n\r\n  /**\r\n   * @dev Returns the remaining number of tokens that `spender` will be\r\n   * allowed to spend on behalf of `owner` through {transferFrom}. This is\r\n   * zero by default.\r\n   *\r\n   * This value changes when {approve} or {transferFrom} are called.\r\n   */\r\n  function allowance(address _owner, address spender) external view returns (uint256);\r\n\r\n  /**\r\n   * @dev Sets `amount` as the allowance of `spender` over the caller's tokens.\r\n   *\r\n   * Returns a boolean value indicating whether the operation succeeded.\r\n   *\r\n   * IMPORTANT: Beware that changing an allowance with this method brings the risk\r\n   * that someone may use both the old and the new allowance by unfortunate\r\n   * transaction ordering. One possible solution to mitigate this race\r\n   * condition is to first reduce the spender's allowance to 0 and set the\r\n   * desired value afterwards:\r\n   * https://github.com/ethereum/EIPs/issues/20#issuecomment-263524729\r\n   *\r\n   * Emits an {Approval} event.\r\n   */\r\n  function approve(address spender, uint256 amount) external returns (bool);\r\n\r\n  /**\r\n   * @dev Moves `amount` tokens from `sender` to `recipient` using the\r\n   * allowance mechanism. `amount` is then deducted from the caller's\r\n   * allowance.\r\n   *\r\n   * Returns a boolean value indicating whether the operation succeeded.\r\n   *\r\n   * Emits a {Transfer} event.\r\n   */\r\n  function transferFrom(address sender, address recipient, uint256 amount) external returns (bool);\r\n\r\n  /**\r\n   * @dev Emitted when `value` tokens are moved from one account (`from`) to\r\n   * another (`to`).\r\n   *\r\n   * Note that `value` may be zero.\r\n   */\r\n  event Transfer(address indexed from, address indexed to, uint256 value);\r\n\r\n  /**\r\n   * @dev Emitted when the allowance of a `spender` for an `owner` is set by\r\n   * a call to {approve}. `value` is the new allowance.\r\n   */\r\n  event Approval(address indexed owner, address indexed spender, uint256 value);\r\n}\r\n\r\n/*\r\n * @dev Provides information about the current execution context, including the\r\n * sender of the transaction and its data. While these are generally available\r\n * via msg.sender and msg.data, they should not be accessed in such a direct\r\n * manner, since when dealing with GSN meta-transactions the account sending and\r\n * paying for execution may not be the actual sender (as far as an application\r\n * is concerned).\r\n *\r\n * This contract is only required for intermediate, library-like contracts.\r\n */\r\ncontract Context {\r\n  // Empty internal constructor, to prevent people from mistakenly deploying\r\n  // an instance of this contract, which should be used via inheritance.\r\n  constructor () internal { }\r\n\r\n  function _msgSender() internal view returns (address payable) {\r\n    return msg.sender;\r\n  }\r\n\r\n  function _msgData() internal view returns (bytes memory) {\r\n    this; // silence state mutability warning without generating bytecode - see https://github.com/ethereum/solidity/issues/2691\r\n    return msg.data;\r\n  }\r\n}\r\n\r\n/**\r\n * @dev Wrappers over Solidity's arithmetic operations with added overflow\r\n * checks.\r\n *\r\n * Arithmetic operations in Solidity wrap on overflow. This can easily result\r\n * in bugs, because programmers usually assume that an overflow raises an\r\n * error, which is the standard behavior in high level programming languages.\r\n * `SafeMath` restores this intuition by reverting the transaction when an\r\n * operation overflows.\r\n *\r\n * Using this library instead of the unchecked operations eliminates an entire\r\n * class of bugs, so it's recommended to use it always.\r\n */\r\nlibrary SafeMath {\r\n  /**\r\n   * @dev Returns the addition of two unsigned integers, reverting on\r\n   * overflow.\r\n   *\r\n   * Counterpart to Solidity's `+` operator.\r\n   *\r\n   * Requirements:\r\n   * - Addition cannot overflow.\r\n   */\r\n  function add(uint256 a, uint256 b) internal pure returns (uint256) {\r\n    uint256 c = a + b;\r\n    require(c >= a, \"SafeMath: addition overflow\");\r\n\r\n    return c;\r\n  }\r\n\r\n  /**\r\n   * @dev Returns the subtraction of two unsigned integers, reverting on\r\n   * overflow (when the result is negative).\r\n   *\r\n   * Counterpart to Solidity's `-` operator.\r\n   *\r\n   * Requirements:\r\n   * - Subtraction cannot overflow.\r\n   */\r\n  function sub(uint256 a, uint256 b) internal pure returns (uint256) {\r\n    return sub(a, b, \"SafeMath: subtraction overflow\");\r\n  }\r\n\r\n  /**\r\n   * @dev Returns the subtraction of two unsigned integers, reverting with custom message on\r\n   * overflow (when the result is negative).\r\n   *\r\n   * Counterpart to Solidity's `-` operator.\r\n   *\r\n   * Requirements:\r\n   * - Subtraction cannot overflow.\r\n   */\r\n  function sub(uint256 a, uint256 b, string memory errorMessage) internal pure returns (uint256) {\r\n    require(b <= a, errorMessage);\r\n    uint256 c = a - b;\r\n\r\n    return c;\r\n  }\r\n\r\n  /**\r\n   * @dev Returns the multiplication of two unsigned integers, reverting on\r\n   * overflow.\r\n   *\r\n   * Counterpart to Solidity's `*` operator.\r\n   *\r\n   * Requirements:\r\n   * - Multiplication cannot overflow.\r\n   */\r\n  function mul(uint256 a, uint256 b) internal pure returns (uint256) {\r\n    // Gas optimization: this is cheaper than requiring 'a' not being zero, but the\r\n    // benefit is lost if 'b' is also tested.\r\n    // See: https://github.com/OpenZeppelin/openzeppelin-contracts/pull/522\r\n    if (a == 0) {\r\n      return 0;\r\n    }\r\n\r\n    uint256 c = a * b;\r\n    require(c / a == b, \"SafeMath: multiplication overflow\");\r\n\r\n    return c;\r\n  }\r\n\r\n  /**\r\n   * @dev Returns the integer division of two unsigned integers. Reverts on\r\n   * division by zero. The result is rounded towards zero.\r\n   *\r\n   * Counterpart to Solidity's `/` operator. Note: this function uses a\r\n   * `revert` opcode (which leaves remaining gas untouched) while Solidity\r\n   * uses an invalid opcode to revert (consuming all remaining gas).\r\n   *\r\n   * Requirements:\r\n   * - The divisor cannot be zero.\r\n   */\r\n  function div(uint256 a, uint256 b) internal pure returns (uint256) {\r\n    return div(a, b, \"SafeMath: division by zero\");\r\n  }\r\n\r\n  /**\r\n   * @dev Returns the integer division of two unsigned integers. Reverts with custom message on\r\n   * division by zero. The result is rounded towards zero.\r\n   *\r\n   * Counterpart to Solidity's `/` operator. Note: this function uses a\r\n   * `revert` opcode (which leaves remaining gas untouched) while Solidity\r\n   * uses an invalid opcode to revert (consuming all remaining gas).\r\n   *\r\n   * Requirements:\r\n   * - The divisor cannot be zero.\r\n   */\r\n  function div(uint256 a, uint256 b, string memory errorMessage) internal pure returns (uint256) {\r\n    // Solidity only automatically asserts when dividing by 0\r\n    require(b > 0, errorMessage);\r\n    uint256 c = a / b;\r\n    // assert(a == b * c + a % b); // There is no case in which this doesn't hold\r\n\r\n    return c;\r\n  }\r\n\r\n  /**\r\n   * @dev Returns the remainder of dividing two unsigned integers. (unsigned integer modulo),\r\n   * Reverts when dividing by zero.\r\n   *\r\n   * Counterpart to Solidity's `%` operator. This function uses a `revert`\r\n   * opcode (which leaves remaining gas untouched) while Solidity uses an\r\n   * invalid opcode to revert (consuming all remaining gas).\r\n   *\r\n   * Requirements:\r\n   * - The divisor cannot be zero.\r\n   */\r\n  function mod(uint256 a, uint256 b) internal pure returns (uint256) {\r\n    return mod(a, b, \"SafeMath: modulo by zero\");\r\n  }\r\n\r\n  /**\r\n   * @dev Returns the remainder of dividing two unsigned integers. (unsigned integer modulo),\r\n   * Reverts with custom message when dividing by zero.\r\n   *\r\n   * Counterpart to Solidity's `%` operator. This function uses a `revert`\r\n   * opcode (which leaves remaining gas untouched) while Solidity uses an\r\n   * invalid opcode to revert (consuming all remaining gas).\r\n   *\r\n   * Requirements:\r\n   * - The divisor cannot be zero.\r\n   */\r\n  function mod(uint256 a, uint256 b, string memory errorMessage) internal pure returns (uint256) {\r\n    require(b != 0, errorMessage);\r\n    return a % b;\r\n  }\r\n}\r\n\r\n/**\r\n * @dev Contract module which provides a basic access control mechanism, where\r\n * there is an account (an owner) that can be granted exclusive access to\r\n * specific functions.\r\n *\r\n * By default, the owner account will be the one that deploys the contract. This\r\n * can later be changed with {transferOwnership}.\r\n *\r\n * This module is used through inheritance. It will make available the modifier\r\n * `onlyOwner`, which can be applied to your functions to restrict their use to\r\n * the owner.\r\n */\r\ncontract Ownable is Context {\r\n  address private _owner;\r\n\r\n  event OwnershipTransferred(address indexed previousOwner, address indexed newOwner);\r\n\r\n  /**\r\n   * @dev Initializes the contract setting the deployer as the initial owner.\r\n   */\r\n  constructor () internal {\r\n    address msgSender = _msgSender();\r\n    _owner = msgSender;\r\n    emit OwnershipTransferred(address(0), msgSender);\r\n  }\r\n\r\n  /**\r\n   * @dev Returns the address of the current owner.\r\n   */\r\n  function owner() public view returns (address) {\r\n    return _owner;\r\n  }\r\n\r\n  /**\r\n   * @dev Throws if called by any account other than the owner.\r\n   */\r\n  modifier onlyOwner() {\r\n    require(_owner == _msgSender(), \"Ownable: caller is not the owner\");\r\n    _;\r\n  }\r\n\r\n  /**\r\n   * @dev Leaves the contract without owner. It will not be possible to call\r\n   * `onlyOwner` functions anymore. Can only be called by the current owner.\r\n   *\r\n   * NOTE: Renouncing ownership will leave the contract without an owner,\r\n   * thereby removing any functionality that is only available to the owner.\r\n   */\r\n  function renounceOwnership() public onlyOwner {\r\n    emit OwnershipTransferred(_owner, address(0));\r\n    _owner = address(0);\r\n  }\r\n\r\n  /**\r\n   * @dev Transfers ownership of the contract to a new account (`newOwner`).\r\n   * Can only be called by the current owner.\r\n   */\r\n  function transferOwnership(address newOwner) public onlyOwner {\r\n    _transferOwnership(newOwner);\r\n  }\r\n\r\n  /**\r\n   * @dev Transfers ownership of the contract to a new account (`newOwner`).\r\n   */\r\n  function _transferOwnership(address newOwner) internal {\r\n    require(newOwner != address(0), \"Ownable: new owner is the zero address\");\r\n    emit OwnershipTransferred(_owner, newOwner);\r\n    _owner = newOwner;\r\n  }\r\n}\r\n\r\ncontract MTZContract is Context, IBEP20, Ownable {\r\n  using SafeMath for uint256;\r\n\r\n  // base variables\r\n  mapping (address => uint256) private _balances;\r\n  mapping (address => mapping (address => uint256)) private _allowances;\r\n\r\n  uint256 private _totalSupply;\r\n  uint8 private _decimals;\r\n  string private _symbol;\r\n  string private _name;\r\n\r\n  // is burnning stopped\r\n  bool private _burnStopped;\r\n\r\n  // holders, except fee members, developers, president, liquidity\r\n  uint256 private _totalHolders;\r\n  mapping (uint256 => address) private _holders;\r\n  mapping (address => bool) private _isHolder;\r\n\r\n  uint256 public _totalExceptMembers;\r\n  mapping (uint256 => address) private _exceptFeeMembers;\r\n  mapping (address => bool) private _isExceptFeeMember;\r\n\r\n  uint256 public _totalDevelopers;\r\n  mapping (uint256 => address) private _developers;\r\n\r\n  address private _president;\r\n\r\n  uint256 public _totalLiquiditys;\r\n  mapping (uint256 => address) private _liquiditys;\r\n\r\n  // fee variables\r\n  uint16 private _holdersFee;\r\n  uint16 private _liquidityFee;\r\n  uint16 private _developersFee;\r\n  uint16 private _burnFee;\r\n  uint16 private _appFee;\r\n  uint16 private _presidentFee;\r\n\r\n  // supplies\r\n  uint256 private _holdersSupply;\r\n  uint256 private _developersSupply;\r\n  uint256 private _presidentSupply;\r\n  uint256 private _liquiditySupply;\r\n  uint256 private _appSupply;\r\n\r\n  constructor() public {\r\n    _name = \"TEST MONET COIN\";\r\n    _symbol = \"TESTMTZ\";\r\n    _decimals = 18;\r\n    _totalSupply = 17000000000 * uint(10) ** _decimals;\r\n\r\n    // init burnning stopped\r\n    _burnStopped = false;\r\n\r\n    // init fees\r\n    _holdersFee = 100; // 100 = 1%\r\n    _liquidityFee = 100;\r\n    _presidentFee = 40;\r\n    _developersFee = 60;\r\n    _burnFee = 25;\r\n    _appFee = 125;\r\n\r\n    // init supplies\r\n    _holdersSupply = 0;\r\n    _developersSupply = 0;\r\n    _presidentSupply = 0;\r\n    _liquiditySupply = 0;\r\n    _appSupply = 0;\r\n\r\n    // init holders, except fee members, developers, president, liquidity\r\n    _balances[msg.sender] = _totalSupply;\r\n    _totalHolders = 1;\r\n    _holders[0] = msg.sender;\r\n    _isHolder[msg.sender] = true;\r\n    _totalExceptMembers = 0;\r\n    _totalDevelopers = 0;\r\n    _totalLiquiditys = 0;\r\n    _president = address(0);\r\n\r\n    emit Transfer(address(0), msg.sender, _totalSupply);\r\n  }\r\n\r\n  /**\r\n   * @dev Returns the token decimals.\r\n   */\r\n  function decimals() external view returns (uint8) {\r\n    return _decimals;\r\n  }\r\n\r\n  /**\r\n   * @dev Returns the token symbol.\r\n   */\r\n  function symbol() external view returns (string memory) {\r\n    return _symbol;\r\n  }\r\n\r\n  /**\r\n  * @dev Returns the token name.\r\n  */\r\n  function name() external view returns (string memory) {\r\n    return _name;\r\n  }\r\n\r\n  /**\r\n   * @dev See {BEP20-totalSupply}.\r\n   */\r\n  function totalSupply() external view returns (uint256) {\r\n    return _totalSupply;\r\n  }\r\n\r\n  // burn stopped functions\r\n  function burnStopped() external view returns(bool) {\r\n    return _burnStopped;\r\n  }\r\n\r\n  function setBurnStopped(bool isStopped) external onlyOwner {\r\n    _burnStopped = isStopped;\r\n  }\r\n\r\n  // fee functions\r\n  function getFeeInfo() external view returns (\r\n    uint16 holdersFee,\r\n    uint16 liquidityFee,\r\n    uint16 presidentFee,\r\n    uint16 developersFee,\r\n    uint16 burnFee,\r\n    uint16 appFee\r\n  ) {\r\n    return (_holdersFee, _liquidityFee, _presidentFee, _developersFee, _burnFee, _appFee);\r\n  }\r\n\r\n  function setHoldersFee(uint16 fee) external onlyOwner {\r\n    _holdersFee = fee;\r\n  }\r\n\r\n  function setLiquidityFee(uint16 fee) external onlyOwner {\r\n    _liquidityFee = fee;\r\n  }\r\n\r\n  function setDevelopersFee(uint16 fee) external onlyOwner {\r\n    _developersFee = fee;\r\n  }\r\n\r\n  function setPresidentFee(uint16 fee) external onlyOwner {\r\n    _presidentFee = fee;\r\n  }\r\n\r\n  function setBurnFee(uint16 fee) external onlyOwner {\r\n    _burnFee = fee;\r\n  }\r\n\r\n  function setAppFee(uint16 fee) external onlyOwner {\r\n    _appFee = fee;\r\n  }\r\n\r\n  // supply functions\r\n  function getSupplyInfo() external view returns (\r\n    uint256 holdersSupply,\r\n    uint256 developersSupply,\r\n    uint256 presidentSupply,\r\n    uint256 liquiditySupply,\r\n    uint256 appSupply\r\n  ) {\r\n    return (_holdersSupply, _developersSupply, _presidentSupply, _liquiditySupply, _appSupply);\r\n  }\r\n\r\n  function makeReflect() external onlyOwner {\r\n    _balances[address(this)] = _balances[address(this)].add(_appSupply);\r\n    emit Transfer(owner(), address(this), _appSupply);\r\n    _appSupply = 0;\r\n\r\n    if (_president != address(0)) {\r\n      _balances[_president] = _balances[_president].add(_presidentSupply);\r\n      _presidentSupply = 0;\r\n      emit Transfer(owner(), _president, _presidentSupply);\r\n    }\r\n\r\n    if (_totalDevelopers > 0) {\r\n      uint256 amountOne = _developersSupply.div(_totalDevelopers);\r\n      uint256 sum = 0;\r\n\r\n      for (uint256 i = 0; i < _totalDevelopers; i ++) {\r\n        if (i == _totalDevelopers - 1) {\r\n          amountOne = _developersSupply.sub(sum);\r\n        }\r\n\r\n        _balances[_developers[i]] = _balances[_developers[i]].add(amountOne);\r\n        emit Transfer(owner(), _developers[i], amountOne);\r\n        sum = sum.add(amountOne);\r\n      }\r\n\r\n      _developersSupply = 0;\r\n    }\r\n\r\n    if (_totalLiquiditys > 0) {\r\n      uint256 amountOne = _liquiditySupply.div(_totalLiquiditys);\r\n      uint256 sum = 0;\r\n\r\n      for (uint256 i = 0; i < _totalLiquiditys; i ++) {\r\n        if (i == _totalLiquiditys - 1) {\r\n          amountOne = _liquiditySupply.sub(sum);\r\n        }\r\n\r\n        _balances[_liquiditys[i]] = _balances[_liquiditys[i]].add(amountOne);\r\n        emit Transfer(owner(), _liquiditys[i], amountOne);\r\n        sum = sum.add(amountOne);\r\n      }\r\n\r\n      _liquiditySupply = 0;\r\n    }\r\n\r\n    uint256 holderSum = 0;\r\n\r\n    for (uint256 i = 0; i < _totalHolders; i ++) {\r\n      uint256 amountOne = _holdersSupply.mul(_balances[_holders[i]]).div(_totalSupply);\r\n\r\n      holderSum = holderSum.add(amountOne);\r\n      _balances[_holders[i]] = _balances[_holders[i]].add(amountOne);\r\n      emit Transfer(owner(), _holders[i], amountOne);\r\n    }\r\n\r\n    _holdersSupply = _holdersSupply.sub(holderSum);\r\n  }\r\n\r\n  // wallet functions\r\n  function getWalletNumbers() external view returns (\r\n    uint256 totalHolders,\r\n    uint256 totalExceptMembers,\r\n    uint256 totalDevelopers,\r\n    uint256 totalLiquiditys\r\n  ) {\r\n    return (_totalHolders, _totalExceptMembers, _totalDevelopers, _totalLiquiditys);\r\n  }\r\n\r\n  function addExceptFeeMember(address exceptFeeMember) external onlyOwner {\r\n    require(_isExceptFeeMember[exceptFeeMember] == false, \"MONET: Member is already out of fee\");\r\n\r\n    _isExceptFeeMember[exceptFeeMember] = true;\r\n    _exceptFeeMembers[_totalExceptMembers] = exceptFeeMember;\r\n    _totalExceptMembers = _totalExceptMembers.add(1);\r\n  }\r\n\r\n  function removeExceptFeeMember(address exceptFeeMember) external onlyOwner {\r\n    require(_totalExceptMembers > 0, \"MONET: There is no except fee members\");\r\n    require(_isExceptFeeMember[exceptFeeMember] == true, \"MONET: Member isn't out of fee\");\r\n\r\n    _isExceptFeeMember[exceptFeeMember] = false;\r\n\r\n    uint256 i;\r\n    \r\n    for (i = 0; i < _totalExceptMembers; i ++) {\r\n      if (_exceptFeeMembers[i] == exceptFeeMember) break;\r\n    }\r\n\r\n    for ( ; i < _totalExceptMembers - 1; i ++) {\r\n      _exceptFeeMembers[i] = _exceptFeeMembers[i + 1];\r\n    }\r\n\r\n    _totalExceptMembers = _totalExceptMembers.sub(1);\r\n  }\r\n\r\n  function getExceptFeeMembers(uint256 _idx) external view returns (address) {\r\n    return _exceptFeeMembers[_idx];\r\n  }\r\n\r\n  function addDeveloper(address developer) external onlyOwner {\r\n    require(developer != address(0), \"MONET: Developer can't be zero addres\");\r\n    uint256 i;\r\n\r\n    for (i = 0; i < _totalDevelopers; i ++) {\r\n      if (_developers[i] == developer) break;\r\n    }\r\n\r\n    require(i == _totalDevelopers, \"MONET: Developer already exists\");\r\n\r\n    _developers[_totalDevelopers] = developer;\r\n    _totalDevelopers = _totalDevelopers.add(1);\r\n  }\r\n\r\n  function removeDeveloper(address developer) external onlyOwner {\r\n    require(_totalDevelopers > 0, \"MONET: There is no developers\");\r\n    \r\n    uint256 i;\r\n\r\n    for (i = 0; i < _totalDevelopers; i ++) {\r\n      if (_developers[i] == developer) break;\r\n    }\r\n\r\n    require(i < _totalDevelopers, \"MONET: Developer doesn't exist\");\r\n\r\n    for ( ; i < _totalDevelopers - 1; i ++) {\r\n      _developers[i] = _developers[i + 1];\r\n    }\r\n\r\n    _totalDevelopers = _totalDevelopers.sub(1);\r\n  }\r\n\r\n  function getDeveloper(uint256 _idx) external view returns (address) {\r\n    return _developers[_idx];\r\n  }\r\n\r\n  function addLiquidity(address liquidity) external onlyOwner {\r\n    require(liquidity != address(0), \"MONET: Liquidity can't be zero addres\");\r\n    uint256 i;\r\n\r\n    for (i = 0; i < _totalLiquiditys; i ++) {\r\n      if (_liquiditys[i] == liquidity) break;\r\n    }\r\n\r\n    require(i == _totalLiquiditys, \"MONET: Liquidity already exists\");\r\n\r\n    _liquiditys[_totalLiquiditys] = liquidity;\r\n    _totalLiquiditys = _totalLiquiditys.add(1);\r\n  }\r\n\r\n  function removeLiquidity(address liquidity) external onlyOwner {\r\n    require(_totalLiquiditys > 0, \"MONET: There is no liquiditys\");\r\n    \r\n    uint256 i;\r\n\r\n    for (i = 0; i < _totalLiquiditys; i ++) {\r\n      if (_liquiditys[i] == liquidity) break;\r\n    }\r\n\r\n    require(i < _totalLiquiditys, \"MONET: Liquidity doesn't exist\");\r\n\r\n    for ( ; i < _totalLiquiditys - 1; i ++) {\r\n      _liquiditys[i] = _liquiditys[i + 1];\r\n    }\r\n\r\n    _totalLiquiditys = _totalLiquiditys.sub(1);\r\n  }\r\n\r\n  function getLiquidity(uint256 _idx) external view returns (address) {\r\n    return _liquiditys[_idx];\r\n  }\r\n\r\n  function setPresident(address president) external onlyOwner {\r\n    require(president != address(0), \"MONET: President can't be zero addres\");\r\n    _president = president;\r\n  }\r\n\r\n  function getPresident() external view returns (address) {\r\n    return _president;\r\n  }\r\n\r\n  /**\r\n   * @dev See {BEP20-balanceOf}.\r\n   */\r\n  function balanceOf(address account) external view returns (uint256) {\r\n    return _balances[account];\r\n  }\r\n\r\n  /**\r\n   * @dev See {BEP20-transfer}.\r\n   *\r\n   * Requirements:\r\n   *\r\n   * - `recipient` cannot be the zero address.\r\n   * - the caller must have a balance of at least `amount`.\r\n   */\r\n  function transfer(address recipient, uint256 amount) external returns (bool) {\r\n    _transfer(_msgSender(), recipient, amount);\r\n    return true;\r\n  }\r\n\r\n  /**\r\n   * @dev See {BEP20-allowance}.\r\n   */\r\n  function allowance(address owner, address spender) external view returns (uint256) {\r\n    return _allowances[owner][spender];\r\n  }\r\n\r\n  /**\r\n   * @dev See {BEP20-approve}.\r\n   *\r\n   * Requirements:\r\n   *\r\n   * - `spender` cannot be the zero address.\r\n   */\r\n  function approve(address spender, uint256 amount) external returns (bool) {\r\n    _approve(_msgSender(), spender, amount);\r\n    return true;\r\n  }\r\n\r\n  /**\r\n   * @dev See {BEP20-transferFrom}.\r\n   *\r\n   * Emits an {Approval} event indicating the updated allowance. This is not\r\n   * required by the EIP. See the note at the beginning of {BEP20};\r\n   *\r\n   * Requirements:\r\n   * - `sender` and `recipient` cannot be the zero address.\r\n   * - `sender` must have a balance of at least `amount`.\r\n   * - the caller must have allowance for `sender`'s tokens of at least\r\n   * `amount`.\r\n   */\r\n  function transferFrom(address sender, address recipient, uint256 amount) external returns (bool) {\r\n    _transfer(sender, recipient, amount);\r\n    _approve(sender, _msgSender(), _allowances[sender][_msgSender()].sub(amount, \"MONET: transfer amount exceeds allowance\"));\r\n    return true;\r\n  }\r\n\r\n  /**\r\n   * @dev Atomically increases the allowance granted to `spender` by the caller.\r\n   *\r\n   * This is an alternative to {approve} that can be used as a mitigation for\r\n   * problems described in {BEP20-approve}.\r\n   *\r\n   * Emits an {Approval} event indicating the updated allowance.\r\n   *\r\n   * Requirements:\r\n   *\r\n   * - `spender` cannot be the zero address.\r\n   */\r\n  function increaseAllowance(address spender, uint256 addedValue) public returns (bool) {\r\n    _approve(_msgSender(), spender, _allowances[_msgSender()][spender].add(addedValue));\r\n    return true;\r\n  }\r\n\r\n  /**\r\n   * @dev Atomically decreases the allowance granted to `spender` by the caller.\r\n   *\r\n   * This is an alternative to {approve} that can be used as a mitigation for\r\n   * problems described in {BEP20-approve}.\r\n   *\r\n   * Emits an {Approval} event indicating the updated allowance.\r\n   *\r\n   * Requirements:\r\n   *\r\n   * - `spender` cannot be the zero address.\r\n   * - `spender` must have allowance for the caller of at least\r\n   * `subtractedValue`.\r\n   */\r\n  function decreaseAllowance(address spender, uint256 subtractedValue) public returns (bool) {\r\n    _approve(_msgSender(), spender, _allowances[_msgSender()][spender].sub(subtractedValue, \"MONET: decreased allowance below zero\"));\r\n    return true;\r\n  }\r\n  \r\n  /**\r\n   * @dev Moves tokens `amount` from `sender` to `recipient`.\r\n   *\r\n   * This is internal function is equivalent to {transfer}, and can be used to\r\n   * e.g. implement automatic token fees, slashing mechanisms, etc.\r\n   *\r\n   * Emits a {Transfer} event.\r\n   *\r\n   * Requirements:\r\n   *\r\n   * - `sender` cannot be the zero address.\r\n   * - `recipient` cannot be the zero address.\r\n   * - `sender` must have a balance of at least `amount`.\r\n   */\r\n\r\n  function _transfer(address sender, address recipient, uint256 amount) internal {\r\n    require(sender != address(0), \"MONET: transfer from the zero address\");\r\n    require(recipient != address(0), \"MONET: transfer to the zero address\");\r\n    require(_balances[sender] >= amount, \"MONET: transfer amount exceeds balance\");\r\n\r\n    uint256 transferAmount = amount;\r\n    uint256 exceptBurnAmount = amount;\r\n\r\n    if (_isExceptFeeMember[sender] == false && _isExceptFeeMember[recipient] == false) {\r\n      // burn if _burnStopped is false\r\n      if (_burnStopped == false) {\r\n        uint256 burnFeeAmount = amount.mul(_burnFee).div(10000);\r\n\r\n        transferAmount = transferAmount.sub(burnFeeAmount);\r\n        exceptBurnAmount = exceptBurnAmount.sub(burnFeeAmount);\r\n        _burn(sender, burnFeeAmount);\r\n      }\r\n\r\n      // holders fee\r\n      {\r\n        uint256 holdersFeeAmount = amount.mul(_holdersFee).div(10000);\r\n\r\n        transferAmount = transferAmount.sub(holdersFeeAmount);\r\n        _holdersSupply = _holdersSupply.add(holdersFeeAmount);\r\n      }\r\n\r\n      // president fee\r\n      {\r\n        uint256 presidentFeeAmount = amount.mul(_presidentFee).div(10000);\r\n\r\n        transferAmount = transferAmount.sub(presidentFeeAmount);\r\n        _presidentSupply = _presidentSupply.add(presidentFeeAmount);\r\n      }\r\n\r\n      // developers fee\r\n      {\r\n        uint256 developersFeeAmount = amount.mul(_developersFee).div(10000);\r\n\r\n        transferAmount = transferAmount.sub(developersFeeAmount);\r\n        _developersSupply = _developersSupply.add(developersFeeAmount);\r\n      }\r\n\r\n      // app fee\r\n      {\r\n        uint256 appFeeAmount = amount.mul(_appFee).div(10000);\r\n        \r\n        transferAmount = transferAmount.sub(appFeeAmount);\r\n        _appSupply = _appSupply.add(appFeeAmount);\r\n      }\r\n\r\n      // liquidity fee\r\n      {\r\n        uint256 liquidityFeeAmount = amount.mul(_liquidityFee).div(10000);\r\n\r\n        transferAmount = transferAmount.sub(liquidityFeeAmount);\r\n        _liquiditySupply = _liquiditySupply.add(liquidityFeeAmount);\r\n      }\r\n    }\r\n\r\n    if (_isHolder[sender] == false) {\r\n      _holders[_totalHolders] = sender;\r\n      _isHolder[sender] = true;\r\n      _totalHolders = _totalHolders.add(1);\r\n    }\r\n\r\n    if (_isHolder[recipient] == false) {\r\n      _holders[_totalHolders] = recipient;\r\n      _isHolder[recipient] = true;\r\n      _totalHolders = _totalHolders.add(1);\r\n    }\r\n\r\n    _balances[recipient] = _balances[recipient].add(transferAmount);\r\n    _balances[sender] = _balances[sender].sub(exceptBurnAmount, \"MONET: transfer amount exceeds balance\");\r\n\r\n    emit Transfer(sender, recipient, transferAmount);\r\n  }\r\n\r\n  /**\r\n   * @dev Destroys `amount` tokens from `account`, reducing the\r\n   * total supply.\r\n   *\r\n   * Emits a {Transfer} event with `to` set to the zero address.\r\n   *\r\n   * Requirements\r\n   *\r\n   * - `account` cannot be the zero address.\r\n   * - `account` must have at least `amount` tokens.\r\n   */\r\n  function _burn(address account, uint256 amount) internal {\r\n    require(account != address(0), \"MONET: burn from the zero address\");\r\n\r\n    _balances[account] = _balances[account].sub(amount, \"MONET: burn amount exceeds balance\");\r\n    _totalSupply = _totalSupply.sub(amount);\r\n    emit Transfer(account, address(0), amount);\r\n  }\r\n\r\n  /**\r\n   * @dev Sets `amount` as the allowance of `spender` over the `owner`s tokens.\r\n   *\r\n   * This is internal function is equivalent to `approve`, and can be used to\r\n   * e.g. set automatic allowances for certain subsystems, etc.\r\n   *\r\n   * Emits an {Approval} event.\r\n   *\r\n   * Requirements:\r\n   *\r\n   * - `owner` cannot be the zero address.\r\n   * - `spender` cannot be the zero address.\r\n   */\r\n  function _approve(address owner, address spender, uint256 amount) internal {\r\n    require(owner != address(0), \"MONET: approve from the zero address\");\r\n    require(spender != address(0), \"MONET: approve to the zero address\");\r\n\r\n    _allowances[owner][spender] = amount;\r\n    emit Approval(owner, spender, amount);\r\n  }\r\n\r\n  /**\r\n   * @dev Destroys `amount` tokens from `account`.`amount` is then deducted\r\n   * from the caller's allowance.\r\n   *\r\n   * See {_burn} and {_approve}.\r\n   */\r\n  function _burnFrom(address account, uint256 amount) internal {\r\n    _burn(account, amount);\r\n    _approve(account, _msgSender(), _allowances[account][_msgSender()].sub(amount, \"MONET: burn amount exceeds allowance\"));\r\n  }\r\n}",
  "sourcePath": "D:\\JCJ\\Solidity\\Monetizer\\Monetizer_Project\\contracts\\MTZContract.sol",
  "compiler": {
    "name": "solc",
    "version": "0.5.16+commit.9c3226ce.Emscripten.clang"
  },
  "schemaVersion": "3.4.3",
  "updatedAt": "2022-04-07T04:16:57.351Z",
  "devdoc": {
    "methods": {
      "allowance(address,address)": {
        "details": "See {BEP20-allowance}."
      },
      "approve(address,uint256)": {
        "details": "See {BEP20-approve}.    * Requirements:    * - `spender` cannot be the zero address."
      },
      "balanceOf(address)": {
        "details": "See {BEP20-balanceOf}."
      },
      "decimals()": {
        "details": "Returns the token decimals."
      },
      "decreaseAllowance(address,uint256)": {
        "details": "Atomically decreases the allowance granted to `spender` by the caller.    * This is an alternative to {approve} that can be used as a mitigation for problems described in {BEP20-approve}.    * Emits an {Approval} event indicating the updated allowance.    * Requirements:    * - `spender` cannot be the zero address. - `spender` must have allowance for the caller of at least `subtractedValue`."
      },
      "increaseAllowance(address,uint256)": {
        "details": "Atomically increases the allowance granted to `spender` by the caller.    * This is an alternative to {approve} that can be used as a mitigation for problems described in {BEP20-approve}.    * Emits an {Approval} event indicating the updated allowance.    * Requirements:    * - `spender` cannot be the zero address."
      },
      "name()": {
        "details": "Returns the token name."
      },
      "owner()": {
        "details": "Returns the address of the current owner."
      },
      "renounceOwnership()": {
        "details": "Leaves the contract without owner. It will not be possible to call `onlyOwner` functions anymore. Can only be called by the current owner.    * NOTE: Renouncing ownership will leave the contract without an owner, thereby removing any functionality that is only available to the owner."
      },
      "symbol()": {
        "details": "Returns the token symbol."
      },
      "totalSupply()": {
        "details": "See {BEP20-totalSupply}."
      },
      "transfer(address,uint256)": {
        "details": "See {BEP20-transfer}.    * Requirements:    * - `recipient` cannot be the zero address. - the caller must have a balance of at least `amount`."
      },
      "transferFrom(address,address,uint256)": {
        "details": "See {BEP20-transferFrom}.    * Emits an {Approval} event indicating the updated allowance. This is not required by the EIP. See the note at the beginning of {BEP20};    * Requirements: - `sender` and `recipient` cannot be the zero address. - `sender` must have a balance of at least `amount`. - the caller must have allowance for `sender`'s tokens of at least `amount`."
      },
      "transferOwnership(address)": {
        "details": "Transfers ownership of the contract to a new account (`newOwner`). Can only be called by the current owner."
      }
    }
  },
  "userdoc": {
    "methods": {}
  }
}